:020000040800F2
:100000000004002061010008D1080008D1080008A0
:10001000D1080008D1080008D1080008D10800085C
:10002000D1080008D1080008D108000841050008DF
:10003000D1080008D1080008D1080008D104000840
:10004000D1080008D1080008D1080008D10800082C
:10005000D1080008D1080008D1080008D10800081C
:10006000D1080008D1080008D1080008D10800080C
:10007000D1080008D1080008D1080008D1080008FC
:10008000D1080008D1080008D1080008D1080008EC
:10009000D1080008D1080008D1080008D1080008DC
:1000A000D1080008D1080008D1080008D1080008CC
:1000B000D1080008D1080008D1080008D1080008BC
:1000C000D1080008D1080008D1080008D1080008AC
:1000D000D1080008A108000881080008610800088C
:1000E000D1080008D1080008D1080008D10800088C
:1000F000D1080008D1080008D1080008D10800087C
:10010000D1080008D1080008D1080008D10800086B
:10011000D1080008D1080008D1080008D10800085B
:10012000D1080008D1080008D1080008D10800084B
:10013000D1080008D1080008D1080008D10800083B
:10014000D1080008D1080008D1080008D10800082B
:10015000D1080008D1080008D1080008D10800081B
:1001600072B6264880F3098825484EF60851CEF22B
:1001700000010860022080F31488BFF36F8F01F044
:10018000AFF800F0C5FC4FF055301E491E4A9142B1
:100190003CBF41F8040BFAE71C49184A91423CBFA6
:1001A00041F8040BFAE71A491A4A1B4B9A423EBF20
:1001B00051F8040B42F8040BF8E700201749184ADD
:1001C00091423CBF41F8040BFAE701F049F801F015
:1001D0007FF8144C144DAC4203DA54F8041B8847E2
:1001E000F9E701F08DFA114C114DAC4203DA54F8E5
:1001F000041B8847F9E701F063B8000000080020FD
:10020000000000080000002000040020000400207E
:10021000E01D000800080020000800200008002061
:10022000880D0020600100086001000860010008DE
:10023000600100082DE9F04FC1F80CD0C3689D465D
:10024000BDE8F08F002383F311882846A0470020E3
:1002500000F0A6FF00F0CCFF00DFFEE780EA010C13
:100260001CF0030F37D110F0030C20F0030021F035
:10027000030150F8042B08BF51F8043B0ED08CF05A
:10028000030C6FF07F434FEACC0C23FA0CFC51F8BF
:10029000043B42EA0C0243EA0C0300BFA2F1013C1A
:1002A0009A4201BF2CEA020C1CF0803F50F8042B4C
:1002B00051F8043BF2D04FEA02604FEA12220128C3
:1002C00028BFB0EB036F08BF1B0AF4D003F0FF0395
:1002D000000EC01A704710F0030F0AD010F8012B5F
:1002E00011F8013B012A28BF9A42F4D0A2EB030087
:1002F00070474DF8045D50F8042B01F0030521F020
:10030000030151F8043B022D26D04DD822F07F4541
:10031000B5EB132FA2F1013C2CEA020C0DD11CF01D
:10032000803C08BF51F8043B0AD185EA0205B5EBD1
:10033000036F0CD150F8042BE8E74FEA13235BE07E
:100340003CF07F4C54D10B784FEA126554E04FEAF1
:10035000126503F0FF034FE04FEA0245A2F1013CB2
:100360004FEA15452CEA020CB5EB134F18D11CF0DF
:10037000803C08BF51F8043B07D185EA0205B5EB84
:10038000034F09D150F8042BE6E75FEA0C4C2FD15C
:100390000B884FEA12452FE04FEA03434FEA12451C
:1003A0004FEA134328E000BF02F0FF05B5EB136FDF
:1003B000A2F1013C2CEA020C0DD11CF0803C08BFDC
:1003C00051F8043B0AD185EA0205B5EB032F0AD1A7
:1003D00050F8042BE8E74FEA13630DE012F0FF0F2B
:1003E00006D051F8043B4FEA122523F07F4303E087
:1003F0004FF0000020BC704705F0FF0203F0FF0043
:10040000012828BF904204BF2D0A1B0AF4D0A2EB9A
:10041000000020BC704700BF00000000000000008A
:10042000024AD36843F08003D3607047003801402C
:10043000024AD36843F08003D36070470044004011
:10044000024AD36843F08003D360704700480040FD
:10045000202383F31188194B5B6813F4006302D1E6
:1004600083F31188704780B400AFEFF309834FF036
:100470008071A3F1200243F8041C82F30988104A1A
:100480009169126891F823009268896850B98A428C
:1004900034BF002201225AB10A4A43F8082CBD4653
:1004A00080BC70478A4294BF00220122002AF3D107
:1004B000054A43F8082CBD4680BC704700ED00E0BB
:1004C00074090020550200085802000800000000CE
:1004D000F8B5202383F31188154DAA6992F82330CB
:1004E00013B1013B82F82330EA8CEB69114E0132E3
:1004F00092B2B342EA8414D01C89013CA4B21C819C
:100500007CB920271A68D968DC605660EA6184F3F8
:1005100011881869884787F31188EB691A89002ABE
:10052000F0D0002383F31188BDE8F840FFF790BFB7
:100530007409002090090020000000000000000065
:1005400080B400AFEFF30983203383F309880023DD
:1005500083F31188BD4680BC704700BF00000000D7
:1005600070B4202383F311880B4E0C4D33684C423A
:10057000013B0B444A1E2D68111803EA0400214078
:100580002B1A99429ABF091831600020002383F387
:10059000118870BC704700BFE40A0020E00A002008
:1005A000202383F3118890F82030072B0ED8DFE842
:1005B00003F0280D0D2408040D08426A93680133E6
:1005C000936090E80C001A600268536010B4002237
:1005D0004FF0FF3481680D4B446280F820201B6887
:1005E0009A688A42FBD25A68002103604260106018
:1005F000586081F3118810BC70470022436A1A606A
:10060000E4E7002383F31188704700BF74090020DA
:10061000002210B404468168074B80F820201B6834
:100620009A688A42FBD25A6820462360626014604E
:100630005C6010BC704700BF74090020000000001F
:10064000F8B50468A04222D00D460746002602E015
:100650002468A7421BD0E3682B43E36015B12269ED
:100660001342F5D06068A368416B90F820200B43DB
:100670000A2A43630CD00B2AEAD1426A32EA030306
:10068000E6D14662FFF7C4FF2468A742E3D1F8BD74
:10069000426A1342DCD04662FFF7BAFFF4E700BFBC
:1006A0002DE9F047466F82B0D6F80CA033680546B6
:1006B000DA059CB200F18680202383F3118814F0C0
:1006C0002F0F4DD04FF0000905F1040805F10C077C
:1006D00007E0A00673681DD43468A4B214F02F0F8D
:1006E0003ED02307F5D014F0080F0CBF0021802165
:1006F000E00748BF41F02001A20748BF41F0400198
:10070000630748BF41F480714046FFF799FFA00698
:100710007368E1D56A6995F87840002A3FD02A6A63
:10072000696A8A4245D069692340501C01312862B8
:10073000696113702A6AEB699A4201D3AB692B6233
:10074000EB689F42C8D01A681846EA605760C3F841
:100750002490FFF75DFF3468A4B214F02F0FC0D1CE
:10076000002383F311881AF0800F01D0220638D4B9
:10077000630611D5202383F311886A6CAB6C9A420F
:1007800055D04FF6BF736FF040020AEA0303F360DF
:100790000023326083F3118802B0BDE8F0870421A2
:1007A00040460193FFF74CFF2A6A696A019B8A421F
:1007B000B9D169690029B6D04FF480614046FFF78E
:1007C0003FFF89E7202383F311884FF40071043041
:1007D000FFF736FF6FF480720023326083F31188D5
:1007E0006AE7202383F31188AB6C6A6C05F130074C
:1007F0009A4224D0AA6B286C591C0132AA63A964BE
:10080000814293F8008001D3EB6BAB642B6B9F426A
:1008100007D000211A6818462A6357605962FFF70B
:10082000F7FEC6F80480002383F31188A0E7AB6BC2
:10083000002BA6D0281D1021FFF702FFA1E7AA6B0D
:10084000002AD7D00821281DFFF7FAFE4FF63F7384
:100850000AEA030343F04003F360E4E7000000000A
:1008600008B50348FFF71CFFBDE80840FFF7F0BDDF
:10087000F808002000000000000000000000000058
:1008800008B50348FFF70CFFBDE80840FFF7E0BDDF
:100890007C080020000000000000000000000000B4
:1008A00008B50348FFF7FCFEBDE80840FFF7D0BDE0
:1008B0000008002000000000000000000000000010
:1008C000FEE700BF00000000000000000000000084
:1008D000FEE700BF00000000000000000000000074
:1008E00030B40A240125084B99691A6881F8200060
:1008F00081F8234014681046636082F820501C6021
:1009000030BC9A61FFF796BC74090020000000001B
:10091000002943D030B54FF6FF75224C4268A369D9
:10092000A94283E8050087B0136043602FD0E369D4
:10093000A5691A891C4891420595049005D91B6840
:10094000891A1A8989B28A42F9D34FF6FF75586815
:1009500001AA0290019302605A60ADF80C101A8946
:100960000420511A1981A584FFF7BAFF049B53B1E3
:10097000019BBDF80C001A89029902441A810B6090
:10098000019B5960A584A369586A07B030BD042053
:10099000FFF7A6FFA369586A07B030BD4FF0FF30DC
:1009A000704700BF74090020A10500080000000086
:1009B0002DE9F04F994683B004460E461546D0F80F
:1009C0001C80202383F311880027264B09F1FF3A6E
:1009D000DB8C1FFA8AFA4B449BB20193A36813B3D2
:1009E000A269A368511C013BA161A360137806F1C1
:1009F000010B33702369A2699A4224BFE368A361A3
:100A0000B8F1000F01D02046C047002383F31188BE
:100A1000013D07F1010719D0202383F31188A36852
:100A20005E46002BDCD14FF6FD72924512D80D4A7E
:100A3000D18C019A511A89B2894505D32046FFF716
:100A400067FF0028CAD0002383F31188384603B01B
:100A5000BDE8F08F49462046FFF75AFF0028BDD079
:100A6000F1E700BF74090020000000000000000052
:100A70000C30FFF79DBF00BF000000000000000029
:100A80000C304FF6FF73FFF793BF00BF000000006C
:100A900070B5202304460E4683F3118805E03146E5
:100AA0002046FFF735FF002818DBA568002DF6D09B
:100AB000A169A36820694A1C013B8242A36028BF48
:100AC000E368A2610D7828BFA361E3690BB12046FA
:100AD0009847002383F31188284670BD85F3118859
:100AE00070BD00BF0000000000000000000000001A
:100AF0000C30FFF7CDBF00BF000000000000000079
:100B00000C304FF6FF71FFF7C3BF00BF00000000BD
:100B10001C4B1A46196841F00101196013689807C7
:100B2000FCD500201368174903F0F90313605060E7
:100B30004B6813F00C0FFBD10B68124A43F480335F
:100B40000B6013689903FCD553680E4943F4A02346
:100B50005360136843F0807313600B689B01FCD5EE
:100B600010224FF4A020084B48601A604B68054AD9
:100B700043F002034B60536803F00C03082BFAD1D7
:100B8000704700BF0010024000200240000000003B
:100B900070B50B4E0B4930460B4D00F041FC0B4B32
:100BA00028460B490B4C736700F03AFC0A4B204671
:100BB0000A496B6700F034FC094B636770BD00BFE6
:100BC00000080020210400087C08002000380140B3
:100BD00031040008F80800200044004041040008E7
:100BE000004800400000000000000000000000007D
:100BF00070B4134A0C680026B2FBF4F2436F8D8880
:100C00009A60CC880A8944F0400142F0010245F420
:100C1000045492B244F02C0405F4A05589B2196131
:100C2000B5F5806F5A61DC601E601A685B6808BFAA
:100C30007F2370BC18BFFF2380F87830704700BF57
:100C400000366E01000000000000000000000000FF
:100C50002DE9F04F994683B004460D461646D0F86C
:100C60001C80202383F311880027BB46244B09F105
:100C7000FF3ADB8C1FFA8AFA4B449BB20193A368BC
:100C8000FBB16269A368511C013B6161A3602B78D1
:100C900001351370236962699A4224BFE368636176
:100CA000B8F1000F01D02046C0478BF31188013EF8
:100CB00007F1010718D0202383F31188A368002BC4
:100CC000DFD14FF6FD72924512D80D4AD18C019AB0
:100CD000511A89B2894505D32046FFF719FE00282D
:100CE000CDD0002383F31188384603B0BDE8F08FE0
:100CF00049462046FFF70CFE0028C0D0F1E700BFB0
:100D00007409002000000000000000000000000046
:100D10002DE980489DB06E464C4B4D4A9B69DFF8EB
:100D20004481DFF834914B4DDFF83CA19A6103AF69
:100D30003222002102A800F0C5FE0DF107044FF099
:100D4000000B06E0BBF1310F50D00BF1010B04F8A2
:100D5000010F4FF6FF712846FFF79AFEC0B20D282B
:100D6000F0D100211CAB03EB0B02BBF1030F02F827
:100D7000681CC8BFABF1040365DD9DF808209DF831
:100D800009008DF800209DF80B209DF80A109A426A
:100D90008DF801008DF802108DF8032008BF01972F
:100DA000A0B902238DF801309DF8023043452AD0C6
:100DB000322200210FA800F085FE31460FA800F076
:100DC0005FFB96E8030000F013FCB1E70228EBD0CC
:100DD0000023214A12F8011B88420CD001330A2B50
:100DE000F8D196E8030000F003FCA1E700222D23D0
:100DF0008DF83920C1E7002296E8030009F80320A6
:100E000000F02EFC94E70FA90A229DF8000000F0E4
:100E100017FE04464FF6FF73072210495046FFF7AE
:100E200017FF204600F09CFE214602464FF6FF7356
:100E30005046FFF70DFF4FF6FF7302220849504658
:100E4000FFF706FF74E79DF80100A9E77409002089
:100E50005C1C000888080020E80A00206C1C0008C0
:100E6000741C0008641C000830080020000000000A
:100E70003030FFF7EDBE00BF0000000000000000B2
:100E800030304FF6FF73FFF7E3BE00BF00000000F5
:100E9000F8B504460F461646202383F3118805E073
:100EA00031462046FFF734FD002817DBA568002DEA
:100EB000F6D06269A368511C013B6161A3601770A1
:100EC000236962699A4224BFE3686361E3690BB1F5
:100ED00020469847002080F31188F8BD85F31188DB
:100EE000F8BD00BF0000000000000000000000008E
:100EF0002DE980489DB06F46994B9A4A9B699A4D5F
:100F0000DFF86C829A6105F124063222002102A8E2
:100F100000F0D8FD0DF1070A00240BE0312C00F0A1
:100F2000F3804FF6FF7249463046FFF7B1FF0134B8
:100F30000AF8019F4FF6FF712846FFF7A9FD5FFAF7
:100F400080F9B9F10D0FE9D14FF0000A0DF1700EE3
:100F5000A6444FF6FF730222414630460EF868ACB5
:100F60005FFA84F9FFF774FE8DF801A08DF802A0F6
:100F70008DF803A08DF800A0CDF804A0002C00F09F
:100F8000E78000200DF1080C034686466246117882
:100F90003A2907D001339C4240F3AB8001321178EB
:100FA0003A29F7D11CA901EB800141F8343C013307
:100FB000A34282F800E000F1010002F1010280F298
:100FC00098800128E3DD02287BD14FF0000EDDF888
:100FD0003CB0F246BBF1000F1ADD0BF1FF311CF8FB
:100FE000010B3038C3B2092B88BF0AF1FF3A002940
:100FF00000F0A18000220123013203EB8303914220
:101000004FEA4303F8D1013903FB00EE4B1CE6D154
:1010100008230122013B4FEA4202FBD1724504DD65
:10102000BAF1000FA8BF8DF801E0DDF840A0AAEBEF
:101030000B01012908DD02AB0BF101001844013955
:1010400000F096FA8DF802000AF10103A34238DAA3
:101050006FEA0A0A02AA1344D1449DF801408DF8B0
:10106000039001938CBB02238DF801309DF8023070
:10107000052B68D0322200210FA800F023FD39464D
:101080000FA800F0FDF997E8030000F0E9FA3CE74B
:10109000012898D1DDF83CA0BAF1000F05DD5146DA
:1010A00002A800F065FA8DF802000AF10103A342DC
:1010B00007DA6FEA0A0A02AA1344D1448DF80390B2
:1010C00001939DF80140002CCDD0022CCED00023FE
:1010D000264A03E001330A2B3FF417AF12F8011B35
:1010E0000029F7D1214A97E80300D45400F080FA90
:1010F0000BE70028CCD1214602A800F039FA9DF870
:1011000001408DF80200ADE74FF0000A4FF6FF7383
:101110000222414630468DF839A0A146FFF798FDDE
:101120008DF801A08DF802A08DF803A08DF800A025
:10113000CDF804A025E70123013903FB00EE4B1C89
:101140007FF44DAF64E797E8030000F051FADCE666
:10115000214602A800F00CFA8DF8020083E700BFD8
:1011600074090020F81C00080C080020E80A002080
:10117000741C0008000000000000000000000000D7
:101180003030FFF785BE00BF000000000000000007
:1011900030304FF6FF72FFF77BBE00BF000000004B
:1011A00038B52022034682F31188104A9469A06A58
:1011B00004F128058542636206D00368A362FFF745
:1011C00027FAA06AA842F8D194F8223043B994F8DB
:1011D00021309B0704D1226963691A612269536136
:1011E0000F20BDE83840FFF77BBB00BF740900202B
:1011F00030B40125184C2268A16913685C6092F82C
:10120000230082F82050A26123608A6890B981F897
:10121000200000E01B6898688242FBD90A205A68C7
:101220000B604A601160596081F82300A06930BCEE
:10123000FFF700B8002081F8200000E01B689868E4
:101240008242FBD35A680B604A6011605960A06902
:1012500030BCFEF7EFBF00BF7409002000000000A3
:10126000F0B50026114F124D124C134B134907F1E4
:10127000800E9C4211D91A46043951F8040F42F8E5
:10128000040B9442F9D8DA43144424F003040434E0
:1012900023449D4203D943F8046B9D42FBD8103789
:1012A000774502D297E83A00E3E7F0BD781C0008E2
:1012B000880D0020880D0020880D0020E01D00080A
:1012C000FEE700BF0000000000000000000000007A
:1012D000704700BF00000000000000000000000098
:1012E000704700BF00000000000000000000000088
:1012F00070B40026144B46629D6981680446A86854
:1013000081420CD884F820601B689A689142FBD90E
:101310005A682360626014605C6070BC70471A4653
:1013200085F82060126891688842FBD901265068D0
:101330002A6068600560556084F820602946204670
:101340009C6170BCFEF776BF7409002000000000AD
:10135000F8B52022034682F311880A2501270024CC
:101360004FF0020E8026C3F81C01C0F8DC1000F11B
:10137000DC01C0F80C11194A19481A49C3F8FC00DD
:10138000506983F8235183F8227103F58075C3F8FF
:10139000181103F5947703F59671C3F8140183F8D7
:1013A00020E1C3F8E04083F82141C3F83841C3F895
:1013B0003441C3F80861C3F83C61C3F810210561EA
:1013C0002846C3F82871C3F82C11C3F830115561B1
:1013D000FFF78EFF84F311882846F8BD74090020BA
:1013E00045020008001D0008000000000000000089
:1013F00038B5044608460D4600F0B2FBE378834258
:1014000008D129466068FEF729FF003018BF012087
:10141000404238BD4FF0FF3038BD00BF0000000033
:101420000346F0B500254FF0010E1027114A00F1D8
:101430000C0443F8042B00F1740600F154024360DD
:10144000C16400F1640300F130014561C0620065D0
:1014500080F808E0856287630664C4600461826185
:1014600042620262C361C363836443640163416394
:10147000F0BD00BF981D0008000000000000000043
:10148000F8B58B780C4605467BB1012B44D0022B76
:1014900012D0032B25D0042B30D0FF232846A37075
:1014A00000F05EFBE0706560F8BD0646274F0FCF89
:1014B0000FC63B683380F0E725492046FFF798FFC9
:1014C000002835D023492046FFF792FF50BB4FF448
:1014D0000071214B214A1B6851611A0CAA702B80A4
:1014E000DBE71B492046FFF783FF58B31949204625
:1014F000FFF77EFFB0B94FF48071EAE7CA784FF684
:10150000FF7349681648FFF7A3FB4FF6FF730222EB
:1015100014491348FFF79CFB0F4B1B681A0C2B80D8
:10152000AA70BAE72E46104B0FCB07C63370B4E74C
:101530004FF40071084B094A1B6811611A0CAA701C
:101540002B80AAE74FF48071F4E700BF2C1D000840
:10155000441D0008481D0008401D000800100140FF
:1015600030080020741C00084C1D0008000000001A
:10157000052970B50D46A8BF05250C462A46164913
:10158000064600F01BFB90B1042CA8BF04241349AD
:101590002246304600F012FB08B9022070BD2246F8
:1015A0000F49304600F00AFB18B9032070BD012036
:1015B00070BD2A460B49304600F000FB08B90420F4
:1015C00070BD2A463046084900F0F8FA00280CBFE2
:1015D0000520002070BD00BF641D00086C1D0008C0
:1015E000741D00087C1D0008641C00080000000039
:1015F00070B582B06C468DE803009DF80010174E60
:101600000131C9B20DF103054FF6FF7230468DF876
:101610000010FFF73DFCA54208D014F8011F4FF65B
:10162000FF723046FFF734FCA542F6D19DF8035017
:101630005DB1019C094E254414F8011B4FF6FF7261
:101640003046FFF725FCAC42F6D14FF6FF720D2174
:101650000248FFF71DFC02B070BD00BFAC080020BF
:1016600070B586B08DE803009DF80230FF2B0FD0D7
:101670004FF6FF7310221F491F48FFF7E9FA4FF694
:10168000FF7302221D491C48FFF7E2FA06B070BD45
:101690002A2306AC04F80C3D0A220DF10D019DF839
:1016A00001009DF8035000F0CBF9204600F058FAF5
:1016B0003A21002206AB0344204603F80C1C03F831
:1016C0000B2C00F04DFA214602464FF6FF730A48F4
:1016D000FFF7BEFA002DD2D0019C074E254414F826
:1016E000011B4FF6FF723046FFF7D2FBA542F6D141
:1016F000C5E700BF841D000830080020741C0008E6
:101700002DE9F84F00244FF0FF354FF088326FF489
:1017100040779D4B9D4E19691D611C61D968DD6044
:10172000DC60D8699A4940F08050D861D869DFF808
:10173000BCE240F00060D8613068DFF8B4C240F429
:10174000807030609869DFF8AC9240F07D0098615D
:10175000DFF8A4828F48CD60A3F57843C1F804E098
:1017600006F51C460EF5637EC1F800C0F560C6F8AC
:1017700004903260C760C0F804800260C1F80C5C5D
:10178000C1F8042CC1F800ECDD605A601A60FFF764
:10179000FFF94FF0800845F6BF504FF0070C4FF0AF
:1017A000100E01210A264FF6FF0920277A4B7B4AAB
:1017B0009D847B4DC3F834805D6403F154055D6501
:1017C000784D5B609C6083F84D405C661C66DB6313
:1017D0001B64DFF828B26860AC607348C3F86880A7
:1017E000C5F800C003F11C0503F12C0CDD611D627E
:1017F00002EB0E05C3F810C0C3F814C0DFF800A256
:1018000080F82380C2F800B09460D46094611561C0
:101810005561664A664DCAF80020664A03F15808C9
:1018200015601B60DC8483F84F6083F84E10C3F8AA
:101830005880C568604A05EA0905C3F818C02A43FC
:10184000DFF8C0C1C3F85C80C260DCF80C205B4DDF
:1018500042F08072CCF80C202A689C640A4383F81A
:101860004C102A6080F81FE080F8227084F3118801
:1018700062B687F311880227514A5D69DFF888C193
:10188000DFF888E14F4882F8B360C2F8981002F19F
:101890006C06C2F8CC1082F8B21002F19001C2F8C6
:1018A0009C60C2F8A800C2F8A450146782F8B14046
:1018B000C2F8C840C2F8C440C2F8A030C2F8AC2098
:1018C000C2F86CC0C2F88CE082F8B07002F1B806C1
:1018D000296102F1BC050846C2F8B860C2F8BC50E4
:1018E000C2F8C0505961FFF703FD84F31188FFF778
:1018F0004FF9354B03F10A0203F8014B9342FBD138
:10190000202383F31188314C227A012A0BD1C02580
:101910001D482F4A816941F48041816182F8255335
:10192000C2F8843153602B492848FFF761F902223D
:101930000023227283F31188202383F31188264D1C
:101940002B7A012B0CD14021C0240F48204BC269B7
:1019500042F40032C26183F82643C3F8841159600F
:101960001C491D48FFF744F9022300242B7284F31D
:1019700011881A491A48FFF7EBFC1A491A48FFF771
:10198000E7FC2046BDE8F88F0010024000700040E0
:10199000000801400010014074090020C00A002026
:1019A000081D000810E000E000ED00E0880D0020B8
:1019B00000200020E00A00200003FA05001000E0EB
:1019C000E80900205C1D0008E80A0020000800204B
:1019D00000E100E0201D00087C080020F10E000856
:1019E000F80A0020110D0008400C0020B8848888F7
:1019F000844BB3B48888B3B4338888886105000801
:101A0000E40A0020F0ED00E0C108000845020008EB
:101A1000931E222B10D80A2A10B506D000230C469C
:101A2000194400F00FF8204610BD0028F6DA2D23E7
:101A300040420B700123F2E700200870704700BF9E
:101A4000FFF7E6BFF0B58BB06F461546DFF870E0E4
:101A500004460E46BEE80F000FC7BEE80F000FC7D2
:101A60009EE80300AB1E47F8040B222B397022D8E6
:101A7000711E0846002300E01346B4FBF5F205FB97
:101A800012440AAF3C4414F8287C144600F8017F45
:101A90005A1C002CF0D1B454F2184BB101344D78DB
:101AA0001778181B844201F8017F02F80159F5DB11
:101AB00030460BB0F0BD002030700BB0F0BD00BF61
:101AC000B81D000870B4860746D0541E002A41D0C5
:101AD000CAB2034602E014F1FF343BD303F8012BF2
:101AE0009D07F8D1032C2ED9CDB245EA05250F2C40
:101AF00045EA054519D9264603F11002103E0F2E7E
:101B000042F8105C42F80C5C42F8085C42F8045C55
:101B100002F11002F2D8A4F1100222F00F0204F038
:101B20000F041032032C13440DD91E462246043AEA
:101B3000032A46F8045BFAD8221F22F0030204327B
:101B4000134404F003042CB1C9B21C4403F8011B74
:101B50009C42FBD170BC704714460346C2E700BFED
:101B600020F0030110F00300C0F1000051F8043B25
:101B700000F1040C4FEACC0C6FF000021CBF22FAFB
:101B80000CF213434FF0010C4CEA0C2C4CEA0C4CB9
:101B9000A3EB0C0222EA030212EACC1204BF51F8B2
:101BA000043B0430F4D0C2F1000102EA0102B2FAAF
:101BB00082F2C2F11F0200EBD2007047002A3FD030
:101BC00040EA010313F00303F0B425D1032A23D91B
:101BD00004680D68AC421FD1043A36D0A4F1013537
:101BE00025EA040414F0803F2CD1043004310FE0C6
:101BF00050F8043B0E68A3F10134B34224EA030415
:101C000001F1040124D1043A1FD014F0803F19D10E
:101C1000032A07460D46EBD805780C78531EAC42D4
:101C200019D17BB114B90DE063B172B110F8012F75
:101C300011F8014F013BA242F6D0101BF0BC7047D7
:101C4000104670470020F0BC70471046F0BC70474B
:0C1C500029463846E0E72A46EFE700BFCF
:101C5C00626F617264000000747261636500000061
:101C6C0074726163653A20000D0A0000E01D0008E3
:101C7C00880D0020880D0020880D0020E01D000834
:101C8C00000000000000000000000000E01D000843
:101C9C00000000000000000000000000E01D000833
:101CAC00000000000000000000000000E01D000823
:101CBC00000000000000000000000000E01D000813
:101CCC00000000000000000000000000E01D000803
:101CDC00000000000000000000000000E01D0008F3
:101CEC000000000000000000000000007573657229
:101CFC00000000006E6F6E616D6500006D61696EB5
:101D0C0000160020040244080C1014181C20212278
:101D1C0023000000009600000000000000000000FE
:101D2C00756E646566696E656420636F6D6D616E5A
:101D3C00640000006F6B00006F6E00006F66660041
:101D4C006D697373696E67206461746100000000D3
:101D5C0069646C65000000006465627567000000D2
:101D6C006C656431000000006C656432000000009A
:101D7C007072696E74000000646576696365206E2C
:101D8C006F7420666F756E6400000000810E000891
:101D9C00810A000891110008010B0008811100084C
:101DAC00F10A0008710E0008710A00083031323354
:101DBC003435363738396162636465666768696AD9
:101DCC006B6C6D6E6F707172737475767778797ADF
:041DDC000000000003
:04000005080001618D
:00000001FF
